:0400000508003ED9D8
:020000040800F2
:1000000000800020D93E0008253F0008253F000859
:10001000253F0008253F0008253F0008000000009C
:10002000000000000000000000000000253F000864
:10003000253F000800000000253F0008BD2C0008F7
:10004000253F0008253F0008253F0008253F000800
:10005000253F0008253F0008253F0008253F0008F0
:10006000253F0008253F0008253F0008253F0008E0
:10007000253F0008253F0008253F0008253F0008D0
:10008000253F0008253F0008253F0008253F0008C0
:10009000253F0008253F0008253F0008253F0008B0
:1000A000253F0008253F0008253F0008253F0008A0
:1000B000253F0008253F0008253F0008253F000890
:1000C000253F0008253F0008253F0008253F000880
:1000D000253F0008253F0008253F0008C1370008DC
:1000E000253F0008253F0008253F0008253F000860
:1000F000253F0008253F0008000000000000000028
:100100000000000000000000253F0008253F000817
:100110000000000000000000253F0008E53800084E
:10012000253F0008253F0008253F0008253F00081F
:10013000253F0008253F0008253F0008253F00080F
:10014000253F000800000000000000000000000043
:10015000000000000000000000000000000000009F
:100160000000000000000000253F0008253F0008B7
:10017000253F000800000000253F000800000000A7
:0801800000000000253F00080B
:1001900010B5054C237833B9044B13B10448AFF3C1
:1001A00000800123237010BD7006002000000000B5
:1001B000586D000808B5034B1BB103490348AFF362
:1001C000008008BD0000000074060020586D000883
:1001D000034613F8012B002AFBD1181A0138704787
:1001E00001F0FF01102A2BDB10F0070F08D010F8E8
:1001F000013B013A8B422DD010F0070F42B3F6D1EC
:10020000F0B441EA012141EA014122F007047FF004
:1002100000070023F0E80256083C85EA010586EA5B
:10022000010685FA47F5A3FA87F586FA47F6A5FA97
:1002300087F68EB9EED1F0BC01F0FF0102F00702A3
:1002400032B110F8013B013A83EA010313B1F8D14E
:100250000020704701387047002D06BF354603382F
:10026000073815F0010F07D1013015F4807F02BF68
:10027000013015F4C03F0130F0BC0138704700BFB9
:1002800081F0004102E000BF83F0004330B54FEA47
:1002900041044FEA430594EA050F08BF90EA020FB4
:1002A0001FBF54EA000C55EA020C7FEA645C7FEA47
:1002B000655C00F0E2804FEA5454D4EB5555B8BF6A
:1002C0006D420CDD2C4480EA020281EA030382EADB
:1002D000000083EA010180EA020281EA0303362D6D
:1002E00088BF30BD11F0004F4FEA01314FF4801C40
:1002F0004CEA113102D0404261EB410113F0004F52
:100300004FEA03334CEA133302D0524263EB430308
:1003100094EA050F00F0A780A4F10104D5F1200EA6
:100320000DDB02FA0EFC22FA05F2801841F1000101
:1003300003FA0EF2801843FA05F359410EE0A5F1D5
:1003400020050EF1200E012A03FA0EFC28BF4CF006
:10035000020C43FA05F3C01851EBE37101F00045BC
:1003600007D54FF0000EDCF1000C7EEB00006EEBC9
:100370000101B1F5801F1BD3B1F5001F0CD3490853
:100380005FEA30004FEA3C0C04F101044FEA4452AA
:1003900012F5800F80F09A80BCF1004F08BF5FEA31
:1003A000500C50F1000041EB045141EA050130BD11
:1003B0005FEA4C0C404141EB0101013C28BFB1F523
:1003C000801FE9D291F0000F04BF01460020B1FA6E
:1003D00081F308BF2033A3F10B03B3F120020CDA41
:1003E0000C3208DD02F1140CC2F10C0201FA0CF01F
:1003F00021FA02F10CE002F11402D8BFC2F1200C84
:1004000001FA02F120FA0CFCDCBF41EA0C01904039
:10041000E41AA2BF01EB0451294330BD6FEA040482
:100420001F3C1CDA0C340EDC04F11404C4F120026D
:1004300020FA04F001FA02F340EA030021FA04F37F
:1004400045EA030130BDC4F10C04C4F1200220FAD6
:1004500002F001FA04F340EA0300294630BD21FA14
:1004600004F0294630BD94F0000F83F4801306BFDA
:1004700081F480110134013D4EE77FEA645C18BFCE
:100480007FEA655C29D094EA050F08BF90EA020F65
:1004900005D054EA000C04BF1946104630BD91EA5D
:1004A000030F1EBF0021002030BD5FEA545C05D160
:1004B0004000494128BF41F0004130BD14F580049F
:1004C0003CBF01F5801130BD01F0004545F0FE4113
:1004D00041F470014FF0000030BD7FEA645C1ABF48
:1004E000194610467FEA655C1CBF0B46024650EA7F
:1004F000013406BF52EA033591EA030F41F40021AB
:1005000030BD00BF90F0000F04BF0021704730B530
:100510004FF4806404F132044FF000054FF0000105
:1005200050E700BF90F0000F04BF0021704730B5C6
:100530004FF4806404F1320410F0004548BF40429B
:100540004FF000013EE700BF42004FEAE2014FEAF0
:1005500031014FEA02701FBF12F07F4393F07F4FCB
:1005600081F06051704732F07F4208BF704793F0CE
:100570007F4F04BF41F40021704730B54FF46074E1
:1005800001F0004521F000411CE700BF50EA0102E4
:1005900008BF704730B54FF000050AE050EA01028D
:1005A00008BF704730B511F0004502D5404261EBFD
:1005B00041014FF4806404F132045FEA915C3FF43E
:1005C000D8AE4FF003025FEADC0C18BF03325FEADB
:1005D000DC0C18BF033202EBDC02C2F1200300FA8C
:1005E00003FC20FA02F001FA03FE40EA0E0021FAB1
:1005F00002F11444BDE600BF70B54FF0FF0C4CF49F
:10060000E06C1CEA11541DBF1CEA135594EA0C0F50
:1006100095EA0C0F00F0DEF82C4481EA030621EA8B
:100620004C5123EA4C5350EA013518BF52EA0335C6
:1006300041F4801143F4801338D0A0FB02CE4FF078
:100640000005E1FB02E506F00042E0FB03E54FF0A8
:100650000006E1FB03569CF0000F18BF4EF0010EA0
:10066000A4F1FF04B6F5007F64F5407404D25FEA9C
:100670004E0E6D4146EB060642EAC62141EA55514F
:100680004FEAC52040EA5E504FEACE2EB4F1FD0C91
:1006900088BFBCF5E06F1ED8BEF1004F08BF5FEA0F
:1006A000500E50F1000041EB045170BD06F00046C1
:1006B00046EA010140EA020081EA0301B4EB5C046E
:1006C000C2BFD4EB0C0541EA045170BD41F4801166
:1006D0004FF0000E013C00F3AB8014F1360FDEBF8B
:1006E000002001F0004170BDC4F10004203C35DA67
:1006F0000C341BDC04F11404C4F1200500FA05F3EA
:1007000020FA04F001FA05F240EA020001F000428A
:1007100021F0004110EBD37021FA04F642EB060100
:100720005EEA430E08BF20EAD37070BDC4F10C042A
:10073000C4F1200500FA04F320FA05F001FA04F2EE
:1007400040EA020001F0004110EBD37041F10001DA
:100750005EEA430E08BF20EAD37070BDC4F12005E5
:1007600000FA05F24EEA020E20FA04F301FA05F24D
:1007700043EA020321FA04F001F0004121FA04F2F5
:1007800020EA020000EBD3705EEA430E08BF20EAC5
:10079000D37070BD94F0000F0FD101F000464000FF
:1007A00041EB010111F4801F08BF013CF7D041EA81
:1007B000060195F0000F18BF704703F00046520085
:1007C00043EB030313F4801F08BF013DF7D043EA56
:1007D0000603704794EA0C0F0CEA135518BF95EA0C
:1007E0000C0F0CD050EA410618BF52EA4306D1D193
:1007F00081EA030101F000414FF0000070BD50EAB2
:10080000410606BF1046194652EA430619D094EA3B
:100810000C0F02D150EA013613D195EA0C0F05D125
:1008200052EA03361CBF104619460AD181EA030179
:1008300001F0004141F0FE4141F470014FF0000031
:1008400070BD41F0FE4141F4780170BD70B54FF0CC
:10085000FF0C4CF4E06C1CEA11541DBF1CEA13554C
:1008600094EA0C0F95EA0C0F00F0A7F8A4EB05042E
:1008700081EA030E52EA03354FEA013100F0888025
:100880004FEA03334FF0805545EA131343EA1263EE
:100890004FEA022245EA111545EA10654FEA0026A3
:1008A0000EF000419D4208BF964244F1FD0404F55C
:1008B000407402D25B084FEA3202B61A65EB0305B8
:1008C0005B084FEA32024FF480104FF4002CB6EB75
:1008D000020E75EB030E22BFB61A754640EA0C00F5
:1008E0005B084FEA3202B6EB020E75EB030E22BF35
:1008F000B61A754640EA5C005B084FEA3202B6EB76
:10090000020E75EB030E22BFB61A754640EA9C0034
:100910005B084FEA3202B6EB020E75EB030E22BF04
:10092000B61A754640EADC0055EA060E18D04FEAC2
:10093000051545EA16754FEA06164FEAC30343EA62
:1009400052734FEAC2025FEA1C1CC0D111F4801F2F
:100950000BD141EA00014FF000004FF0004CB6E728
:1009600011F4801F04BF01430020B4F1FD0C88BFC7
:10097000BCF5E06F3FF6AFAEB5EB030C04BFB6EBD2
:10098000020C5FEA500C50F1000041EB045170BDC5
:100990000EF0004E4EEA113114EB5C04C2BFD4EBF2
:1009A0000C0541EA045170BD41F480114FF0000E76
:1009B000013C90E645EA060E8DE60CEA135594EAF2
:1009C0000C0F08BF95EA0C0F3FF43BAF94EA0C0FF5
:1009D0000AD150EA01347FF434AF95EA0C0F7FF46A
:1009E00025AF104619462CE795EA0C0F06D152EABE
:1009F00003353FF4FDAE1046194622E750EA4106A2
:100A000018BF52EA43067FF4C5AE50EA41047FF4B2
:100A10000DAF52EA43057FF4EBAE12E74FF0FF3C17
:100A200006E000BF4FF0010C02E000BF4FF0010CE8
:100A30004DF804CD4FEA410C7FEA6C5C4FEA430C61
:100A400018BF7FEA6C5C1BD001B050EA410C0CBFB0
:100A500052EA430C91EA030F02BF90EA020F002012
:100A6000704710F1000F91EA030F58BF994208BF79
:100A700090422CBFD8176FEAE37040F00100704736
:100A80004FEA410C7FEA6C5C02D150EA013C07D18D
:100A90004FEA430C7FEA6C5CD6D152EA033CD3D0D8
:100AA0005DF8040B704700BF8446104662468C46D2
:100AB0001946634600E000BF01B5FFF7B7FF002805
:100AC00048BF10F1000F01BD4DF808EDFFF7F4FF2E
:100AD0000CBF012000205DF808FB00BF4DF808EDB9
:100AE000FFF7EAFF34BF012000205DF808FB00BFDC
:100AF0004DF808EDFFF7E0FF94BF012000205DF8FE
:100B000008FB00BF4DF808EDFFF7CEFF94BF0120B2
:100B100000205DF808FB00BF4DF808EDFFF7C4FFAB
:100B200034BF012000205DF808FB00BF4FEA410CF4
:100B30007FEA6C5C02D150EA013C0AD14FEA430CD7
:100B40007FEA6C5C02D152EA033C02D14FF0000014
:100B500070474FF0010070474FEA410212F5001252
:100B600015D211D56FF47873B3EB625212D94FEAF4
:100B7000C12343F0004343EA505311F0004F23FADE
:100B800002F018BF404270474FF00000704750EA33
:100B9000013005D111F0004008BF6FF000407047F0
:100BA0004FF00000704700BF53B94AB9002908BF91
:100BB00000281CBF4FF0FF314FF0FF3000F06EB93E
:100BC000ADF1080C6DE904CE00F006F8DDF804E0A4
:100BD000DDE9022304B070472DE9F047089D044683
:100BE0008C46002B40F083808A42174647D9B2FAE0
:100BF00082F242B1C2F1200024FA00F09140974005
:100C000040EA010C94404FEA1748230CBCFBF8F66D
:100C10001FFA87FE08FB16C143EA014306FB0EF1EB
:100C2000994209D9FB1806F1FF3080F019819942E9
:100C300040F21681023E3B445B1AA4B2B3FBF8F0CB
:100C400008FB103344EA034400FB0EFEA64509D915
:100C50003C1900F1FF3380F00581A64540F2028186
:100C600002383C4440EA0640A4EB0E0400261DB1C5
:100C7000D4400023C5E900433146BDE8F08702B9FE
:100C8000FFDEB2FA82F2002A50D1CB1B4FEA174E98
:100C90001FFA87F80126B3FBFEFC210C0EFB1C3368
:100CA00041EA034108FB0CF38B4207D979180CF198
:100CB000FF3002D28B4200F2E9808446C91AA3B207
:100CC000B1FBFEF00EFB101143EA014408FB00F8F3
:100CD000A04507D93C1900F1FF3302D2A04500F22C
:100CE000D9801846A4EB080440EA0C40BFE78B42C9
:100CF00009D9002D00F0B1800026C5E90001304679
:100D00003146BDE8F087B3FA83F6002E4AD18B4214
:100D100002D3824200F2B880841A61EB0301012001
:100D20008C46002DA8D0C5E9004CA5E7C2F12003F0
:100D300020FA03F6974001FA02F04FEA174ED94025
:100D40003043030CB1FBFEF61FFA87F80EFB1611B9
:100D500043EA014306FB08F1994204FA02F409D977
:100D6000FB1806F1FF3C80F08D80994240F28A80AA
:100D7000023E3B445B1A81B2B3FBFEF00EFB103324
:100D800041EA034100FB08F38B4207D9791800F1CF
:100D9000FF3C73D28B4271D902383944CB1A40EAF6
:100DA000064678E7C6F1200C03FA06F422FA0CF3A3
:100DB0001C4320FA0CF701FA06F34FEA144E21FA0D
:100DC0000CF11F433B0CB1FBFEF91FFA84F80EFB3C
:100DD000191143EA014109FB08FA8A4502FA06F2B1
:100DE00000FA06F308D9611809F1FF3048D28A45A4
:100DF00046D9A9F102092144A1EB0A01BFB2B1FB16
:100E0000FEF00EFB101147EA014700FB08F8B84559
:100E100007D9E71900F1FF312ED2B8452CD9023895
:100E2000274440EA0940A7EB0807A0FB02894F4589
:100E3000C64649461AD317D05DB1B3EB0E0267EB35
:100E4000010707FA0CFCF2404CEA0202F740C5E940
:100E5000002700263146BDE8F0872E4628460BE7DE
:100E60000646E9E61846FDE64345E5D2B8EB020E34
:100E700069EB04010138DFE70846D2E760468DE7F9
:100E80008146B9E7664675E730464AE7ACF1020CA1
:100E9000394413E702383C4424E700BF704700BFE1
:100EA000034B1B7813B1013B014A1370704700BF1D
:100EB0008D060020044B1B78044A1278934202D21C
:100EC0000133014A137070478D0600208C06002004
:100ED000034B9B68632B02DC0133014A936070472C
:100EE00098020020034B9B68012B02DD013B014A65
:100EF0009360704798020020034B9B68042B02DC30
:100F00000133014A936070472C030020034B9B6818
:100F1000002B02DD013B014A936070472C03002047
:100F2000044B9B68012B00DD70470133014A93603D
:100F3000FAE700BF58030020034B9B68002B02DD3B
:100F4000013B014A9360704758030020044B9B68A3
:100F5000002B00DD70470133014A9360FAE700BFC0
:100F600084030020034B9B68002B02DD013B014AF8
:100F7000936070478403002008B5024B1B689847B4
:100F800008BD00BF0400002008B5024B1B6898474D
:100F900008BD00BF0000002008B5024B1B68984741
:100FA00008BD00BF3800002008B5024B1B689847F9
:100FB00008BD00BF3400002008B5044B1A78044B6C
:100FC0001B6853F822309B69984708BD8D060020A6
:100FD0001C07002008B5044B1A78044B1B6853F813
:100FE0002230DB69984708BD8D0600201C070020D1
:100FF00008B5044B1A78044B1B6853F822301B6A5F
:10100000984708BD8D0600201C07002008B5044B3A
:101010001A78044B1B6853F822305B6A984708BD66
:101020008D0600201C07002010B50021124800F09A
:10103000F3FB124C1E220221204600F019FC3C2238
:101040000221204600F01DFC0D4C1E2204212046EA
:1010500000F00EFC3C220421204600F012FC094C5A
:101060001E220621204600F003FC3C2206212046D9
:1010700000F007FC10BD00BF786D0008E8010020FB
:10108000140200204002002010B50021144800F096
:10109000C3FB144C0A220221206800F0E9FB0A225B
:1010A0000321606800F0E4FB0A220421A06800F03C
:1010B000DFFB0A220521E06800F0DAFB0A220621A4
:1010C000206900F0D5FB084B1B7854F8233093F8C7
:1010D00029100A39C9B293F8280000F005FB10BDA9
:1010E000886D0008B00300208D06002010B5002197
:1010F000214800F091FB214C0A220221206800F0D7
:10110000B7FB50220221206800F0BBFB0A2203211A
:10111000606800F0ADFB50220321606800F0B1FB75
:101120000A220421A06800F0A3FB50220421A06839
:1011300000F0A7FB0A220521E06800F099FB50228D
:101140000521E06800F09DFB0A220621206900F0DD
:101150008FFB50220621206900F093FB084B1B787F
:1011600054F8233093F829100A39C9B293F82800AB
:1011700000F0BAFA10BD00BF946D0008EC0000202A
:101180008D06002010B50021174800F045FB174CD4
:101190000A220221206800F06BFB5F2202212068F6
:1011A00000F06FFB0A220321606800F061FB5F2200
:1011B0000321606800F065FB0A220421A06800F0AA
:1011C00057FB5F220421A06800F05BFB084B1B78F3
:1011D00054F8233093F829100A39C9B293F828003B
:1011E00000F082FA10BD00BFA86D00088401002045
:1011F0008D06002010B50021414800F00DFB414C48
:101200000A220221204600F033FB50220221204610
:1012100000F037FB3C4C0A220321204600F028FB5B
:10122000A368052B0AD8DFE803F003343B4249509A
:10123000502203214FF4965000F0ACFA334C0A22AE
:101240000421204600F014FBA368012B4AD0022B96
:101250004ED0002B40D02E4C0A220521204600F013
:1012600007FBA06850220521013000F093FA294BBA
:101270001A78294B53F8223093F8280093F8293034
:10128000264A1278D2B33C211944C9B200F02CFA94
:1012900010BD502203214FF4165000F07BFACDE729
:1012A000502203214FF4964000F074FAC6E7502212
:1012B00003214FF4164000F06DFABFE750220321DE
:1012C0004FF4614000F066FAB8E7502203214FF472
:1012D000E13000F05FFAB1E750220421104800F03D
:1012E00039FAB8E7502204210E4800F033FAB2E789
:1012F000502204210C4800F02DFAACE7F621C3E798
:10130000BC6D0008980200202C0300205803002028
:10131000840300208D060020C40200208E060020D9
:10132000D06D0008D46D0008D86D0008084B1A78FD
:10133000084B9A60084B1A78084B9A60084B1A7849
:10134000084B9A60084B1A78084B9A60704700BFA8
:101350009004002098020020910400202C0300201B
:10136000EC06002058030020ED0600208403002036
:10137000014B1860704700BF04000020014B18604B
:10138000704700BF00000020014B1860704700BF8D
:1013900038000020014B1860704700BF3400002067
:1013A00010B50D4800F082F90C4C2046FFF7E0FF25
:1013B0002046FFF7E3FF2046FFF7E6FF0848FFF768
:1013C000E9FF084800F075FA074800F072FA07488C
:1013D00000F06FFA10BD00BF291000089D1600082C
:1013E0004D140008E80100201402002040020020F3
:1013F00010B50D4C204600F053F9204601F0BEFC1C
:101400000A490B4802F0CAF80A490B4802F0C6F82C
:101410000A490B4802F0C2F80A490B4802F0BEF82C
:10142000FFF7BEFF10BD00BF20070020790F0008A6
:10143000A00C0020890F0008900C0020990F0008D4
:10144000800C0020A90F0008700C002008B50C4883
:1014500000F02CF90B48FFF78BFF0B48FFF794FFC8
:101460000A48FFF78BFF0A48FFF794FF094B002259
:101470001A70094B04221A70084B094A1A6008BDF9
:1014800089100008A1130008A10E0008B50E00087D
:101490000D1000088D0600208C0600201C0700207F
:1014A000B003002008B50C4800F000F90B48FFF726
:1014B0005FFF0B48FFF768FF0A48FFF75FFF0A4826
:1014C000FFF768FF094B00221A70094B04221A70BB
:1014D000084B094A1A6008BDED1000084D140008B9
:1014E000A10E0008B50E00080D1000088D060020A2
:1014F0008C0600201C070020EC00002008B5094BDA
:1015000000221A700848FFF733FF0848FFF73CFF36
:101510000748FFF733FF0748FFF73CFFFFF706FFD9
:1015200008BD00BF8E0600204D140008A10E000863
:10153000B50E00080D10000808B5044B1A7A044BCC
:101540001A7001F02DF9FFF7D9FF08BD98020020AD
:101550009004002008B5044B1A7A044B1A7001F06D
:101560001FF9FFF7CBFF08BD2C03002091040020DA
:1015700008B5044B1A7A044B1A7001F011F9FFF701
:10158000BDFF08BD58030020EC06002008B5044B41
:101590001A7A044B1A7001F003F9FFF7AFFF08BD88
:1015A00084030020ED06002008B5084B01221A70C4
:1015B0000748FFF7DDFE0748FFF7E0FE0648FFF7A4
:1015C000E3FE0648FFF7E6FE08BD00BF8E060020DA
:1015D000FD140008D50F0008B90F0008F10F00082E
:1015E00008B50E4800F062F80D48FFF7C1FE0D483F
:1015F000FFF7CAFE0C48FFF7C1FE0C48FFF7CAFE12
:1016000000230B4A13700B4A13700B4B03221A7002
:10161000FFF78CFE094B0A4A1A6008BDF511000855
:101620004D140008A10E0008B50E00080D100008AA
:101630008D0600208E0600208C0600201C0700204E
:10164000C402002008B50C4800F030F80B48FFF742
:101650008FFE0B48FFF798FE0A48FFF78FFE0A48F7
:10166000FFF798FE094B00221A70094B02221A70EC
:10167000084B094A1A6008BD851100084D1400087E
:10168000A10E0008B50E00080D1000088D06002000
:101690008C0600201C0700208401002070470000F9
:1016A000014B1860704700BF200B0020014B1860F1
:1016B000704700BFF403002008B54FF4806200219A
:1016C000024B186802F0A2FC08BD00BF200B0020EE
:1016D000072800D9072011F0800F02D101EBC010BC
:1016E00070477F21FAE7000010B5064B1C68FFF732
:1016F000EFFF03462118044A1068E05013790B717C
:1017000010BD00BF200B0020706D000800220B7878
:10171000E3B130B406E0002300F8013B013292B29D
:101720000B7883B10131203B03EB8304084B234446
:101730000024042CEFDC13F8015B00F8015B01329C
:1017400092B20134F5E7104630BC7047104670473E
:10175000206F00082DE9F04106460F4690466420B0
:1017600002F036FC04460A4B1D6841463846FFF736
:10177000AFFF054431462046FFF7C8FF0246214629
:10178000284602F035FC204602F02AFCBDE8F08134
:10179000200B0020F8B507460D4616460A2002F039
:1017A00017FC04463A46064903F0B6FA3246294683
:1017B0002046FFF7CFFF204602F012FCF8BD00BF25
:1017C0000C6F0008F8B510EE107A05460E4614208E
:1017D00002F0FEFB04463846FEF7B6FE02460B4614
:1017E0000649204603F098FA324629462046FFF77C
:1017F000B1FF204602F0F4FBF8BD00BF106F0008F7
:1018000008B518B10248FFF7A5FF08BD0148FAE77F
:101810001C6F0008186F0008F8B505460E466420D6
:1018200002F0D6FB04462946FFF770FF05460A4B37
:101830001F68C0F1800303EBD373C3F34701304645
:10184000FFF746FF2A462146384402F0D1FB2046E6
:1018500002F0C6FBF8BD00BF200B002008B5FFF763
:101860002BFF024B1B68984708BD00BFF403002004
:1018700008B580F8281080F829200068FFF76AFF73
:1018800008BD10B5034608461C79012C07D0022C70
:101890000BD004B110BD9868FFF77CFFFAE7114642
:1018A00093ED030AFFF78EFFF4E7187CFFF7A8FF1C
:1018B000F0E7037913B1012B05D070474369B3F901
:1018C00000308360704743691B68C3607047000045
:1018D00008B501F0DBF901F0FDF801F05DFC01F065
:1018E00009F8144801F05EFE1349144801F058FE4F
:1018F000FFF77EFD01F07CFC114B00221A805A801C
:101900009A80DA801A815A819A81DA811A825A82FF
:1019100000F046FF01E000F0F5F83222002309490B
:10192000D1E90001FFF740F91343F4D1FFF796FF27
:10193000F1E700BFF52800083D2D0008A00C0020AD
:10194000480C0020F006002008B501F06BFC01F007
:101950004BFE08BD08B501F089FC01F0C5FD08BDCE
:101960000F4B1A880F4B1A805A8801325A809A8876
:1019700002329A80DA880332DA801A8904321A81B4
:101980005A8905325A819A8906329A81DA89073250
:10199000DA811A8A08321A825A8A09325A827047C0
:1019A000F0060020480C002038B5044608461146D1
:1019B0001A469DF81030451EEDB2F62D45D8254D3E
:1019C00028701CB1012C24D002243FE0224C234D6E
:1019D0002560234C234D2560234C244D2560244C49
:1019E000244D2560244C00252560244C244D256081
:1019F000244C254D2560254C254D256000F034FDF7
:101A000004461CBB01F02AFE10B3224B01221A70BF
:101A10001CE0114C204D2560114C204D2560124CCE
:101A20001F4D2560124C1F4D2560134C002525606D
:101A3000124C1D4D2560134C1C4D2560134C1C4D44
:101A4000256000F02BF90446DBE70224204638BD70
:101A50000324FBE7A50600209C060020AD24000817
:101A6000A0060020C924000894060020492500088B
:101A700090060020DD24000898060020300B00208E
:101A8000C9250008280B0020792600082C0B00200F
:101A90000D27000804040020D51C0008F51C0008D0
:101AA000751D0008091D0008E11D0008311F000810
:101AB0003920000808B5064B1B78012B01D0062001
:101AC00008BD044B1B6898470020014B1870F7E7CE
:101AD000040400209C06002010B5084B1C783CB97B
:101AE000074B1B689847054B01221A70204610BD12
:101AF000012C01D00624F9E70024F7E704040020B4
:101B0000A006002070B582B03B4B1C78002C71D130
:101B10000DF1070001F0B6FD012806D0374B1B7808
:101B2000012B57D0204602B070BD9DF80730012B25
:101B30000BD0022BF2D1324B18680178314B19705F
:101B4000314B01221A70002314E0304B1B68304ADD
:101B50002B49304898470028E0D12E4B1B782E4A5D
:101B60001278934201D0002BD8D1022001F07EFDE3
:101B7000D4E701330F2B0DDC284A12F833204AB189
:101B80009142F6D1254A02EBC3035B68204998478E
:101B90001D4B18701F4B1B78002BBFD01A4B1B78A6
:101BA00073B1184A117816480568194A012616803B
:101BB00041F080012970006811888D191580435407
:101BC000174B1B68124A12880D49096812480078A1
:101BD0009847A3E7134BD3E90001134BD3E9002344
:101BE000994208BF90429DD301F002FC034B0022B2
:101BF0001A7097E7062495E704040020440B0020A0
:101C0000A8060020A40600208F06002090060020D1
:101C1000AE060020AC060020A50600200804002027
:101C200094060020F0060020380B002003463038D0
:101C3000C0B2092808D9A3F14102D2B2052A02D8BC
:101C4000373BD8B27047FF20704700234A1E92B23C
:101C500029B110F8011B0B44DBB21146F6E75842DC
:101C6000C0B27047092808D908B5A0F10A03DBB251
:101C7000052B05D83730C0B208BD3030C0B2704730
:101C8000034B044A4FF4E871034802F04DF900BFDA
:101C9000007100080C7200080471000810B50846B5
:101CA000114672B60A4A0A241470072201F02AFD6E
:101CB000012802D0032062B610BD44F6206001F076
:101CC000BBFD012801D00320F5E70020F3E700BFAA
:101CD000B806002008B572B60021012001F0E2FC30
:101CE0000020034B187062B601F0C0FC08BD00BFB5
:101CF000B106002008B572B60021084601F0D2FCFA
:101D000001F0E4FD62B608BD70B572B6144B1B88D5
:101D10009BB2FF2B1AD806460C461546104B1B8863
:101D20009BB2022B18D90E4B198889B20D48FFF7C8
:101D30008CFF98B90B4A12F8013B3370084B1B8893
:101D40009BB2023B2B80226062B670BD064B074AF5
:101D50009C21074802F0E8F80520F5E70520F3E7A5
:101D6000BA060020480B002018710008BC7100085A
:101D700004710008F8B572B6144B1B781BB1052529
:101D800062B62846F8BD03F0FF054F1E104B1F60DA
:101D9000104C0126268001F8010C238812FA83F2E8
:101DA00092B22280218889B23846FFF74EFF2388FD
:101DB0009BB29A1992B22280074A9854074B1E7020
:101DC0003146002001F06EFCDAE700BFB1060020CA
:101DD000B4060020BC060020480B0020B2060020FC
:101DE00070B582B0494B1B788BB903F0FF050DF13C
:101DF000070001F0DEFC464B1C78E4B2012C0CD04D
:101E0000022C4FD0002C6FD0284602B070BD414B41
:101E1000414AE321414802F087F801F049FD9DF86D
:101E200007003A281CD00D2820D0FFF7FFFE3C4ABF
:101E3000137803F0FF04EBB1012CE5D1394C218874
:101E400089B2394E8A5D42EA0003DBB28B552388A2
:101E50009BB201339BB22380314B00221A70D3E72F
:101E600000232F4A13702F4A1380CDE7284B0222FC
:101E70001A70C9E72B4B1B889BB2FF2B0BD8294B41
:101E80001A8892B20001C0B2274BD054244B0122D1
:101E90001A702546B8E71E4B00221A7001F016FD95
:101EA0002546B1E79DF80720204B1B78DBB29A420C
:101EB00005D03A2A0DD0164B00221A70A4E701F083
:101EC00005FD134B00221A70012001F0CFFB0546DF
:101ED0009AE70023124A1370124A13800C4B012216
:101EE0001A7001F0E5FC8FE79DF807303A2B01D01E
:101EF000254689E701F0DCFC00230A4A1380084AE2
:101F00001370034B01221A7025467DE7B2060020AC
:101F1000B106002040710008CC710008047100086F
:101F2000B0060020BA060020480B0020B8060020AA
:101F300070B5384B1B785BB903F0FF05364B1C7846
:101F4000E4B2042C14D8DFE804F05F0A154A52000A
:101F5000324B334A40F24F11324801F0E5FF3A204C
:101F600001F022FC2C4B02221A702F4B00221A7017
:101F7000284670BD2D4B1B889BB24BB32A4B1B7858
:101F800003F0FF04BBB1012CF2D1294C236818786F
:101F900000F00F00FFF766FE01F006FC2368013336
:101FA0002360214B00221A70204A13889BB2013B08
:101FB0009BB21380DCE71E4B1B6818780009FFF703
:101FC00051FE01F0F1FB184B01221A702546CFE7B4
:101FD0000D2001F0E9FB104B03221A70C8E7154BE6
:101FE000187801F0E1FB0C4B04221A70C0E70A4E8E
:101FF00000243470032001F039FB054621460120FE
:1020000001F050FB3470B3E70021012001F04AFBDE
:102010002546ADE7B1060020B20600205C7100083D
:10202000E071000804710008B0060020BC06002022
:10203000B4060020B806002008B50E4B1B78013B03
:10204000012B10D90B4B1B78DBB2012B0ED0094BA7
:102050001B78DBB2022B09D0074B084A40F2A711CC
:10206000074801F061FF034B00221A7001F02EFCBB
:10207000002008BDB106002078710008F471000846
:102080000471000830B4FF2215464B1E9CB249B1C2
:1020900010F8013B5340054AD25C6A400449CD5CCC
:1020A0002146F2E742EA052030BC70471C72000866
:1020B0001C73000838B50B88052B01D0032038BDF0
:1020C0000C464378817841EA0321013189B2C37813
:1020D000027942EA0322531E9BB240F2CE75AB4214
:1020E00020D8002323800123037023880133238019
:1020F00012F0070F10D0C2F3C7030133DDB24570F1
:102100002388013323800023023000F0EFFB30B935
:1021100023882B442380D2E7C2F3C705EFE700F002
:1021200033FBCCE70320CAE70B88052B01D0032043
:1021300070474378817841EA0321013189B20379FC
:10214000F3B9C278531EDBB2FD2B1BD900B583B0A7
:1021500000238DF80530FF2A0BD000238DF80430C2
:1021600001231A4601A800F0C1FB30B903B05DF8A5
:1021700004FB01238DF80430F2E700F005FBF5E7DE
:1021800003207047032070470B88052B2AD970B5B0
:102190000C464178837843EA0123013399B2C2782F
:1021A000037943EA0222467913F0070F0CD0C2F3F9
:1021B000C7050135EDB2531E9BB2B3F5F66F13D2CE
:1021C000B54204D0032070BDC2F3C705F3E7012375
:1021D000063000F08BFB10B905232380F3E700F0F5
:1021E000D3FAF0E7032070470320ECE738B50B88FB
:1021F000052B01D0032038BD0C464378817841EA95
:102200000321013189B2C378027942EA0322531EC5
:102210009BB240F2CE75AB421FD80023238002232D
:10222000037023880133238012F0070F0FD0C2F30D
:10223000C7030133DDB245702388013323800230A8
:1022400000F056FB30B923882B442380D3E7C2F338
:10225000C705F0E700F098FACDE70320CBE708B513
:102260000B88052B01D0032008BD4378817841EA13
:102270000321013101231A4689B2033000F0F8FA34
:102280000028F1D000F080FAEEE738B50B88052B76
:1022900020D90C464178837843EA0123013399B26F
:1022A000C378027942EA03224579531E9BB2772B09
:1022B00012D85300DBB2AB4201D003200BE0012364
:1022C000063000F0D5FA10B90523238003E000F0B2
:1022D0005BFA00E0032038BD0320FCE7F8B50B886B
:1022E000052B01D00320F8BD0C464378817841EAE4
:1022F0000321013189B2027995B2531E9BB27C2B26
:1023000001D90320EFE7002323800646032706F8C0
:10231000027B2788013727805200427022880132D1
:1023200022802A46304600F0A3FA20B9238803EB26
:1023300045052580D7E700F027FAD4E7F8B50B88E4
:10234000092B45D904460D464378817841EA03219B
:1023500001318EB2C378077947EA0327437981793F
:1023600041EA0321013189B2C379027A42EA0322A8
:10237000407A7B1E9BB27C2B2CD86AB3792A2DD84D
:10238000B0EB420F01D0032023E0012304F10A0047
:1023900000F06EFA034618B1D8B100F0F5F918E074
:1023A00028802046172200F8022B2A8801322A8032
:1023B0007A0062702A8801322A803A46314600F05B
:1023C00057FA0028E8D12B8803EB47072F80E3E773
:1023D0000020F8BD0320FCE70320FAE70320F8E71C
:1023E00038B50B88052B01D0032038BD0C46437847
:1023F000817841EA0321013189B2C378057945EA40
:1024000003256B1E9BB27B2B01D90320EDE7002334
:1024100023800346042203F8022B22880132228003
:102420006A0042702288013222802A46184600F053
:10243000F7F920B9238803EB45052580D5E700F09F
:10244000A3F9D2E738B50D46054B1C88224605494D
:10245000013001F0CDFD01342C80002038BD00BFDB
:10246000E0060020C006002010B50846144672B6EB
:102470000822214601F046F9012802D0032062B665
:1024800010BDB4F5964F0AD864000748B0FBF4F0CD
:1024900080B201F0D1F9012803D00320EFE7232017
:1024A000F6E70020EBE700BFA07F170008B572B683
:1024B0000021044B1970012001F0F4F801F0F8F943
:1024C00062B608BDE206002008B572B600210846D3
:1024D00001F0E8F801F0FAF962B608BD70B572B61D
:1024E000144B1B889BB2FF2B0AD805460C46164698
:1024F000104B1B889BB2032B08D8052062B670BD19
:102500000D4B0E4A9C210E4801F00EFD094B198817
:1025100089B20C48FFF7B6FD50B90A4A12F8013BE0
:102520002B70044B1B889BB2033B33802260E5E792
:102530000520E3E7E8060020187100089074000801
:102540001C740008480B002072B61A4B1B78DBB2D3
:10255000012B02D0052062B6704770B54E1E164B97
:102560001E60164C0125258001F8010C238812FA03
:1025700083F292B22280218889B23046FFF782FD31
:1025800023889BB25A1992B22280C2B20C49CA5413
:1025900023889BB25A1992B22280C0F30720C854F4
:1025A000084B1D702946002001F07CF8002062B61F
:1025B00070BD00BFE2060020E4060020EA0600200D
:1025C000480B0020E306002000B583B0234B1B78A6
:1025D00063B90DF1070001F0ECF8214B1B78DBB279
:1025E000032B0BD8DFE803F00811230E1D4B1E4A06
:1025F000E6211E4801F098FC01F05AF9002003B0D2
:102600005DF804FB01F054F9F8E7194A0023138040
:1026100013889BB2591C89B211809DF80710154A86
:10262000D1540F4B02221A7001F042F9E6E7104B29
:102630001B889BB2FF2B0CD80D490B889BB25A1CF0
:1026400092B20A809DF807100A4AD15401F030F97D
:10265000D4E7034B03221A70F8E700BFE30600201B
:10266000E206002040710008A07400081C740008F5
:10267000E8060020480B002010B51D4B1B78DBB28C
:10268000012B09D11B4B1B7803F0FF045BB1012C1C
:102690000ED00024204610BD174B184A40F22111DD
:1026A000174801F041FC0021012000F0FBFFF1E799
:1026B000144B1B889BB27BB1134C2368187801F034
:1026C00073F82368013323600E4A13889BB2013BE1
:1026D0009BB213800024DDE7032000F0C7FF04460F
:1026E0000021012000F0DEFF024B00221A70D1E72A
:1026F000E2060020E30600205C710008B4740008C4
:102700001C740008EA060020E406002010B51A4BED
:102710001B78DBB2022B18D0032B22D083B1164BCF
:102720001B7803F0FF04EBB1134B1B78DBB2022BD9
:102730001FD0114B1B78DBB2032B0BD1002411E00F
:10274000002000F093FF04460CE0012000F08EFF13
:10275000044607E0094B0A4A4FF4AD71094801F0FD
:10276000E3FB002401F0B2F8034B01221A7020466B
:1027700010BD0024F6E700BFE20600202C7400081C
:10278000C87400081C740008012805D0072805D06B
:1027900008B1042070477047022070470620704738
:1027A00030B583B01A4B00221A701A4B1B78052BD8
:1027B00027D8DFE803F003261A1D20234FF496558F
:1027C000154B1B78012B21D0022B1DD00024FFF7C5
:1027D00083F900942B460022104909781046FFF730
:1027E000E3F8FFF767F903B030BD4FF49645E7E72C
:1027F0004FF41645E4E74FF46145E1E74FF4E13566
:10280000DEE74FF41655DBE70124E0E70224DEE7BC
:10281000440B002091040020EC06002090040020CE
:10282000B1F57A7F1BD330B4541840F2F2339C4296
:1028300017DC0D4B1B88C91A72B10C4D35F81140CD
:10284000240A034603F8024B15F811404470013185
:10285000013A92B21846EFE7002030BC70470120E1
:1028600070470120F9E700BF8A040020480C0020CF
:10287000B1F5FA6F30D370B4551840F2DA74A5424E
:102880002CDC184C2488091B8BB1012B20D0002094
:1028900025E0154E36F811502D0A044604F8025B67
:1028A00016F8115045700131013A92B22046002AC3
:1028B000EFD1184613E0034613F8024B407840EA84
:1028C0000420094C24F811000131013A92B2184653
:1028D000002AF0D1002002E001207047012070BCE6
:1028E000704700BF880400205C0C00200120704766
:1028F0000120704708B5044B1B684FF47A7000FB49
:1029000003F000F07BFC08BD8C04002010B483B001
:10291000194B5A6942F480225A615B6903F480239F
:102920000193019B154801684FF4007393FAA3F2D9
:10293000B2FA82F25200032404FA02F221EA0202FD
:1029400093FAA3F10260C26893FAA3F1B1FA81F19C
:10295000490004FA01F122EA010293FAA3F3B3FA5F
:1029600083F35B00012101FA03F31343C36003B057
:102970005DF8044B704700BF00100240000400489F
:1029800010B483B0194B5A6942F480225A615B69D2
:1029900003F480230193019B154801684FF4807371
:1029A00093FAA3F2B2FA82F25200032404FA02F27A
:1029B00021EA020293FAA3F10260C26893FAA3F13A
:1029C000B1FA81F1490004FA01F122EA010293FA15
:1029D000A3F3B3FA83F35B00012101FA03F313437A
:1029E000C36003B05DF8044B704700BF00100240A5
:1029F0000004004810B483B0184B5A6942F4802296
:102A00005A615B6903F480230193019B14480168B8
:102A1000802393FAA3F2B2FA82F25200032404FA5A
:102A200002F221EA020293FAA3F10260C26893FA69
:102A3000A3F1B1FA81F1490004FA01F122EA01029D
:102A400093FAA3F3B3FA83F35B00012101FA03F3D2
:102A50001343C36003B05DF8044B7047001002409D
:102A60000004004810B483B0184B5A6942F4802225
:102A70005A615B6903F480230193019B1448016848
:102A8000402393FAA3F2B2FA82F25200032404FA2A
:102A900002F221EA020293FAA3F10260C26893FAF9
:102AA000A3F1B1FA81F1490004FA01F122EA01022D
:102AB00093FAA3F3B3FA83F35B00012101FA03F362
:102AC0001343C36003B05DF8044B7047001002402D
:102AD000000400482DE9F04184B0DFF87C806C46AA
:102AE000204600F0F1FC94E80F0088E80F00174F33
:102AF000204600F0E9FC94E80F0087E80F00144E30
:102B0000204600F0E1FC94E80F0086E80F00114D2C
:102B1000204600F0D9FC94E80F0085E80F00FFF78D
:102B2000F5FEFFF72DFFFFF765FFFFF79BFF404620
:102B300000F044FD384600F041FD304600F03EFD17
:102B4000284600F03BFD04B0BDE8F081900C002069
:102B5000800C0020700C0020A00C0020104B1A6983
:102B600012F4007F0CBF012100210E4A11701A6976
:102B700012F4807F0CBF012100210B4A11701A69E9
:102B800012F0800F0CBF01210021084A11701B694F
:102B900013F0400F0CBF01220022054B1A70704742
:102BA00000040048A00C0020900C0020800C0020A5
:102BB000700C002010B52A4A136823F0070343F075
:102BC00002031360A2F58052136843F4803313604C
:102BD000244B1B6813F4003FFAD0224A136843F0D9
:102BE000010313601F4B1B6813F0020FFAD01D4B3B
:102BF0005A6822F4741242F4E8125A60DA6A22F037
:102C00000F02DA621A6842F080721A60154B1B6874
:102C100013F0007FFAD0134A536823F0F003536097
:102C2000536823F0030343F0020353600D4B5B68CA
:102C300003F00C03082BF9D10A4A536823F4E0632C
:102C400043F480635360536823F460535360064C2D
:102C5000204601F02BF9204601F038F910BD00BFE5
:102C6000002002400010024000A24A04064AD2F8A6
:102C7000883043F47003C2F8883002F50C72536850
:102C800043F018035360704700ED00E008B5FFF70C
:102C900091FF074B074A5A60074AF02182F8231038
:102CA00000229A6007221A60FFF7E0FF08BD00BF0C
:102CB00010E000E03F19010000ED00E008B54FF41E
:102CC0007A7200231049D1E90001FDF76DFF13432B
:102CD00013D0642200230C49D1E90001FDF764FF01
:102CE00013430DD0084A13685168013341F10001C4
:102CF00013605160FEF728FE08BDFEF731FEE8E7DD
:102D0000FEF728FEEEE700BFF00600200A4BD3E9ED
:102D10000023121843F100030749D1E900018B4257
:102D200008BF824207D300BF0349D1E9000199429D
:102D300008BF9042F0D37047F0060020BFF34F8FDA
:102D40000549CA6802F4E062044B1343CB60BFF349
:102D50004F8F00BFFDE700BF00ED00E00400FA0563
:102D600038B54FF090450124AC622046FFF7CEFF06
:102D7000AC612046FFF7CAFF38BD0000014B186068
:102D8000704700BFEC0C002010B483B01D4B5A6993
:102D900042F400325A615B6903F400330193019BF2
:102DA0004FF090400268082393FAA3F1B1FA81F141
:102DB0004900032404FA01F122EA010293FAA3F183
:102DC000B1FA81F14900022404FA01F10A430260D8
:102DD000026A93FAA3F1B1FA81F1A1400F2404FA37
:102DE00001F122EA010293FAA3F3B3FA83F39B0001
:102DF000062101FA03F313430362002003B05DF8D8
:102E0000044B70470010024010B483B01D4B5A6948
:102E100042F400325A615B6903F400330193019B71
:102E20004FF090400268022393FAA3F1B1FA81F1C6
:102E30004900032404FA01F122EA010193FAA3F202
:102E4000B2FA82F2520003FA02F20A430260026A04
:102E500093FAA3F1B1FA81F199400F2404FA01F138
:102E600022EA010293FAA3F3B3FA83F39B0006214B
:102E700001FA03F313430362002003B05DF8044B2F
:102E8000704700BF0010024000B589B00A4B5A6974
:102E900042F400325A615B6903F400330193019BF1
:102EA00001230293039302A94FF0904000F050FDDC
:102EB00009B05DF804FB00BF0010024000B589B006
:102EC0000A4B5A6942F400325A615B6903F40033D9
:102ED0000193019B042302930123039302A94FF062
:102EE000904000F035FD09B05DF804FB0010024091
:102EF00000B589B00A4B5A6942F400225A615B69F5
:102F000003F400230193019B0823029301230393FD
:102F100002A9044800F01CFD09B05DF804FB00BFE5
:102F2000001002400008004800B589B00A4B5A69F9
:102F300042F400225A615B6903F400230193019B70
:102F4000042302930123039302A9044800F000FD27
:102F500009B05DF804FB00BF001002400008004803
:102F600000B58DB0124BDA6942F40042DA61DB69D8
:102F700003F400430193019B002302934FF48272F8
:102F800003924FF4E062049202220592012206921B
:102F90004FF4007207922822089209930A930B9328
:102FA00002A9044800F052FE0DB05DF804FB00BF1A
:102FB00000100240003C004000B583B0114B5A693C
:102FC00042F002025A615B6903F002030193019B24
:102FD0000D4A0023D360102191600C4909685160AB
:102FE000D361802151610A491160936113610A2301
:102FF00013620221074800F083FCC0B203B05DF801
:1030000004FB00BF00100240B00C0020EC0C0020BC
:103010000C3C004000040240024A136823F0010304
:10302000136070471C040240054B61F04F0119709A
:1030300000F0F0025A70000940F0100098707047DC
:10304000E80C0020014B1878704700BFF8060020FC
:1030500010B40E4B18700E4B1C6824F001041C6059
:10306000D9605968090C09041143596050B9094BDA
:1030700008229A61064A136843F0010313605DF861
:10308000044B7047034B08229A62F3E79204002036
:103090001C0402400008004808B50D4B19780629A9
:1030A0000AD900220A4B1A700A490B6823F001035F
:1030B0000B60094B1A7008BD0131C9B219700020AC
:1030C000FFF7B2FF032205490120FFF7C1FFF2E736
:1030D000090700201C04024008070020E80C00201B
:1030E00008B5054B1B68054A1178802203EBC11116
:1030F0000020FFF7ADFF08BDEC0C00200907002001
:1031000008B50020064B18700146FFF78DFF01201F
:10311000044B187003220449FFF79AFF08BD00BF53
:103120000907002008070020E80C002008B5084B1C
:103130001B78012B06D0022B07D003B108BDFFF787
:10314000ABFFFBE7FFF7CCFFF8E7FFF765FFF5E71D
:1031500092040020034B9B6813F0020FFAD0014B3E
:1031600018737047003C004008B52F20FFF7F2FFAE
:10317000A420FFF7EFFFA320FFF7ECFFA620FFF747
:10318000E9FFC820FFF7E6FFA020FFF7E3FFAF202D
:10319000FFF7E0FF08BD000008B50220FFF7B6FD0D
:1031A000FFF7A6FEFFF7C0FEFFF788FEFFF76CFEF5
:1031B000FFF7EAFDFFF728FEFFF7D2FEFFF7FCFE60
:1031C000094A136843F002031360084B5A6842F03F
:1031D00002025A601A6842F040021A60FFF7C0FD0E
:1031E000FFF7C2FF08BD00BF1C040240003C0040C6
:1031F000014B01221A707047F8060020064BD3E9F4
:103200000023121843F100030449C1E90023044BD1
:1032100004229A61704700BFF006002000070020DA
:103220000008004808B50C4B1B7833B10B4B9B686A
:1032300013F0800F01D1FFF779FF094BD3E90001AB
:10324000084BD3E90023994208BF904202D3064BB2
:1032500004229A6208BD00BF08070020003C00401D
:10326000F0060020000700200008004808B5054BC4
:103270001B7813B9FFF7E6FE00B908BDFFF740FF62
:10328000FBE700BF0807002000B589B00B4B5A6967
:1032900042F400225A615B6903F400230193019B0D
:1032A0004FF480630293022303930723079302A939
:1032B000034800F04DFB09B05DF804FB001002402C
:1032C0000008004800B589B00B4B5A6942F400224F
:1032D0005A615B6903F400230193019B4FF400637F
:1032E0000293022303930723079302A9034800F0E4
:1032F0002FFB09B05DF804FB0010024000080048F5
:1033000000B589B00B4B5A6942F400225A615B69DF
:1033100003F400230193019B4FF480530293012394
:1033200003930023059302A9034800F011FB09B0A1
:103330005DF804FB0010024000080048024A1368D0
:1033400023F00103136070470048004030B583B09C
:10335000144B1A6B42F003021A63DA6942F48022BA
:10336000DA61DB6903F480230193019BFFF7E6FF39
:10337000FFF78AFFFFF7A6FFFFF7C2FF0A4D2846B7
:1033800000F062FD094C2946204600F0FDFC084D86
:10339000284600F084FD2946204600F061FD03B078
:1033A00030BD00BF00100240F00C0020004800407B
:1033B0000C0D0020024A136843F0010313607047AC
:1033C0000048004008B5FFF7B9FF0349034800F083
:1033D000DBFCFFF7EFFF08BDF00C002000480040C9
:1033E000024B4FF480529A61704700BF00080048BA
:1033F000024B4FF480529A62704700BF00080048A9
:1034000008B5052808D8DFE800F0030A0F14191ED4
:103410000F4B4FF496521A60FFF7D4FF08BD0C4BC8
:103420004FF416521A60F7E7094B4FF496421A60B0
:10343000F2E7074B4FF416421A60EDE7044B4FF4E6
:1034400061421A60E8E7024B4FF4E1321A60E3E7A9
:10345000F00C002008B5012809D002280CD010B1CA
:10346000FFF7B0FF08BD074B0022DA60F8E7054B15
:103470004FF48062DA60F3E7024B4FF4C062DA6027
:10348000EEE700BFF00C0020014B1885704700BF2D
:1034900000480040014B988CC0B270470048004083
:1034A0007047000001460023184600E00133032B5B
:1034B00006DC044A52F823208A42F7D10120F5E7BE
:1034C000704700BF1C0D0020002202704270428035
:1034D00003498160C160427101220271704700BFDF
:1034E000A13400080078704738B5274B1B78002BB3
:1034F00037D138BD5A78012A11D0022A1AD00134A6
:10350000214B1B78A3422FDD204B53F824305A88DF
:10351000052AEFD91A79002AECD00125EAE79B6841
:1035200098471A4B53F8243000225A70184B1B68E6
:103530009847E4E75A7932B9DB689847134B53F858
:10354000243001225A71114B53F824305A88B2F5B5
:10355000FA6FD4D200225A700C4B53F824305A71AF
:10356000CDE700242546CBE71DB90A4B00221A708F
:10357000BFE7084B1B78002BBBD1064B01221A700A
:10358000054B1B689847B4E70B0700201C0D002073
:10359000980400200A0700209404002081607047EE
:1035A000C1607047014B1860704700BF9404002051
:1035B000014B1878704700BF0B07002010B5044678
:1035C000FFF770FF50B9FFF7F3FF032806D8044A4E
:1035D0001378591C1170034A42F8234010BD00BFF4
:1035E0000B0700201C0D002038B51A4B1B7803B9BF
:1035F00038BDFFF7B3FA002417E06B88053B9BB298
:1036000040F2CA72934201D801236B70124B53F8F7
:10361000243000225A80104B53F824305A88B2F5D7
:10362000FA6F01D302225A7001340A4B1B78A3426D
:10363000DEDD094B53F824502846FFF753FF0028DE
:10364000DBD06B8842F20F729342E4D801336B8077
:10365000E1E700BF0B0700201C0D0020024B0022F9
:103660001A700120704700BF0D0700200123034A94
:103670001370034A10701846704700BF0D070020F2
:103680000C0700200346054A107830B1044A12782E
:103690001A70024B00221A70012070470D0700209B
:1036A0000C07002008B5B8B1124A136843F0200394
:1036B0001360114B01221A70104A136852680533C7
:1036C00042F100020E480360426059B9094A13688A
:1036D00023F08003136008BD064A136823F020031B
:1036E0001360F2E7034A136843F080031360FFF7A7
:1036F00077FEF0E700480040440B0020F006002071
:10370000380B002038B50C461D46FFF71FFEB4F5F8
:10371000164F2ED01FD8B4F5165F26D0B4F5964FAD
:1037200003D10220FFF76CFE05E0B4F5965F28D1C7
:103730000020FFF765FE012D2FD0022D29D025B3E3
:10374000FFF756FE174B80225A60C3F88421FFF71B
:1037500031FE012038BDB4F5614F0ED0B4F5E13F24
:103760000FD10520FFF74CFEE5E70120FFF748FEEB
:10377000E1E70320FFF744FEDDE70420FFF740FE0A
:10378000D9E70120FFF73CFED5E70020FFF762FEF6
:10379000D6E70120FFF75EFED2E70220FFF75AFED0
:1037A000CEE700BF00E100E008B5FFF76DFE0120A5
:1037B00008BD10B50446FFF76DFE2070012010BD56
:1037C00008B51A4BDB6913F0100F07D0174B1B68B5
:1037D00013F0100F02D0154B10221A62134BDB6945
:1037E00013F0400F07D0114B1B6813F0400F02D0AD
:1037F0000E4B40221A620D4BDB6913F0800F07D08D
:103800000A4B1B6813F0800F02D0094B1B689847C6
:10381000064BDB6913F0200F07D0044B1B6813F035
:10382000200F02D0034B1B68984708BD004800409A
:10383000280B0020300B002010B586B00023019328
:103840000293039304930593154AD16941F0200133
:10385000D161D26902F020020092009A114AD26826
:10386000114A82F837334FF40001516040F60F627D
:10387000ADF80420029303900C4C01A9204600F0FF
:1038800021FA236823F080032360636823F0700328
:103890006360A36823F08003A360012006B010BD1D
:1038A0000010024000ED00E000E100E000140040E4
:1038B000054B00225A621A6842F001021A60DA6867
:1038C00042F00102DA60704700140040044B1A68AD
:1038D00022F001021A60DA6822F00102DA60704711
:1038E0000014004008B5044B1B689847034B6FF069
:1038F00001021A6108BD00BF2C0B0020001400401B
:1039000030B49368D4682343146923435469234330
:1039100094692343D4692343546A234301390B4CEC
:10392000655C2C18295821F4FF4121F070010B43EC
:103930002B505368E3601368A360126A63681B0C22
:103940001B0413436360002030BC7047E074000820
:10395000F0B40C6894FAA4F4B4FA84F44BE08E68E2
:10396000826893FAA3F5B5FA85F56D00032707FA87
:1039700005F522EA050293FAA3F5B5FA85F56D007F
:1039800006FA05F52A4382600E68CD68426822EA8D
:10399000060205FB06F52A4342600E69C26893FAE7
:1039A000A3F5B5FA85F56D00032707FA05F522EAB8
:1039B000050293FAA3F5B5FA85F56D0006FA05F54B
:1039C0002A43C2604A68022A22D04A68056893FAEC
:1039D000A3F6B6FA86F67600032707FA06F625EA76
:1039E000060593FAA3F3B3FA83F35B0002FA03F339
:1039F0002B43036001340B6833FA04F23CD00122FC
:103A0000A2401340F6D04A68013A012AC5D8A6E779
:103A100093FAA3F2B2FA82F2072A15D84E69026A23
:103A200093FAA3F5B5FA85F5AD000F2707FA05F56A
:103A300022EA050293FAA3F5B5FA85F5AD0006FA78
:103A400005F52A430262C0E74D69466A1A0A92FAEE
:103A5000A2F7B7FA87F7BF004FF00F0C0CFA07F781
:103A600026EA070692FAA2F2B2FA82F2920005FA68
:103A700002F232434262A8E70020F0BC7047000027
:103A8000034B5B68C3F30313024AD35CD84070470F
:103A900000100240E8740008034B5B68C3F3022384
:103AA000024AD35CD840704700100240F874000806
:103AB000034B5B68C3F3C223024AD35CD840704710
:103AC00000100240F87400080E4B5B6803F480336A
:103AD000ABB90D4B0B4AD06A00F00F000130B3FBBD
:103AE000F0F0536803F470134FF4701292FAA2F2DC
:103AF000B2FA82F2D340023303FB00F07047034B6B
:103B0000E8E700BF0010024000093D0000127A0003
:103B100008B5054B5B6803F00C03082B01D0034884
:103B200008BDFFF7D1FFFBE70010024000127A004A
:103B300010B5044628BB414B1B6B03228240134047
:103B400043EA0063022B14D0032B0BD0012B06D0C9
:103B5000FFF7DEFFFFF794FFFFF7AAFF12E0FFF782
:103B6000D7FF0FE0354B186810F002000AD0344838
:103B700008E0324B186A10F0020003D04FF4004006
:103B800000E00020102C02D0122C2BD010BD2B4BAB
:103B90001B6B0322A240134043EA0463294A934269
:103BA00018D002F5803293420DD0A2F50032934234
:103BB00006D0FFF7ADFFFFF763FFFFF76DFFE3E709
:103BC000FFF7A6FFE0E71D4B1B6813F0020FDBD0E9
:103BD0001B48D9E7194B1B6A13F0020FD4D04FF4DE
:103BE0000040D1E7154B1B6B0322A240134043EA70
:103BF0000464154B9C4218D003F580239C420DD0E1
:103C0000A3F500239C4206D0FFF782FFFFF738FFA1
:103C1000FFF742FFBAE7FFF77BFFB7E7074B1B68E9
:103C200013F0020FB2D00648B0E7044B1B6A13F042
:103C3000020FABD04FF40040A8E700BF00100240D5
:103C400000127A0000000210000008120346026809
:103C500012F0400F30D110B4006820F47F4020F003
:103C6000BF000A684C682243CC6822430C69224397
:103C70004C6922438C692243CC6922430C6A22435B
:103C800002431A605A6822F4706222F004028868C3
:103C9000CC8A204302435A600A6AB2F5005F07D01B
:103CA0000020DA6922F40062DA615DF8044B7047A3
:103CB0008A8C1A610020F4E70120DA6922F400629C
:103CC000DA6170470368B0F1804F0ED02C4A904201
:103CD0000BD002F58062904207D002F580629042DC
:103CE00003D002F5A832904203D123F070034A6852
:103CF0001343B0F1804F26D0214A904223D002F5E1
:103D0000806290421FD002F5806290421BD002F583
:103D10004062904217D002F58062904213D002F5C3
:103D2000806290420FD002F5903290420BD002F5A3
:103D30008062904207D002F58062904203D002F583
:103D4000A052904203D123F44073CA681343036026
:103D50008B68C3620B8883620A4B984207D003F5D5
:103D60008063984203D003F58063984201D10B69C8
:103D70000363436943F0010343610020704700BFC0
:103D8000000400400040014038B5036813F0010F03
:103D90004ED104460D46036823F4164323F00C036A
:103DA0004A68C9680A4329690A43A9690A4313434F
:103DB0000360AB68426822F44052134343606B696E
:103DC000826822F44072134383601C4B984207D0F0
:103DD0001B4B984216D01B4B984217D0012028E06D
:103DE0000020FFF7A5FE28B32B682BB3AA69B2F514
:103DF000004F0FD000EB5300B0FBF3F39BB2E36036
:103E0000002016E01020FFF793FEECE71220FFF7EA
:103E10008FFEE8E75A0802EB4000B0FBF3F34FF6E1
:103E2000F0721A40C3F342031343E360002000E042
:103E3000012038BD0120FCE70120FAE700380140ED
:103E400000440040004800404FF416530360002334
:103E500043608360C3600C220261436183617047E9
:103E6000036813F0010F18D10B682BB9436823F4D2
:103E7000006343600020704710B4436823F470630C
:103E80004A688C682243C9680A43134343F40063B9
:103E9000436000205DF8044B704701207047002309
:103EA000036043608360C36070470000054BA3FB61
:103EB00000239B09013B044A5360002393600523C0
:103EC00013607047D34D621010E000E0014B1860A2
:103ED000704700BF9C040020DFF830D0002103E0D1
:103EE0000B4B5B58435004310A480B4B42189A4223
:103EF000F6D30A4A02E0002342F8043B084B9A42F8
:103F0000F9D300F041F8FDF7E3FCFEE70080002064
:103F100030790008000000207006002070060020A4
:103F20003C0D0020FEE700001FB514461A46094B61
:103F30001B680546D8684CB1074B0091CDE90134A8
:103F400006492B4600F00EF800F0C6FF044B1C4655
:103F5000F3E700BFA0040020007500080D750008FD
:103F60003B7500080EB403B5014603AB054853F892
:103F7000042B0068019300F025F902B05DF804EB12
:103F800003B07047A004002070B50D4D0D4C641BAC
:103F9000A4100026A64209D10B4D0C4C02F0DCFE09
:103FA000641BA4100026A64205D170BD55F8043B41
:103FB00098470136EEE755F8043B98470136F2E79B
:103FC0002879000828790008287900082C79000849
:103FD000024B0146186800F071B800BFA004002031
:103FE000024B0146186800F019B800BFA004002079
:103FF0000A44914200F1FF3300D1704710B511F827
:10400000014B03F8014F9142F9D110BD0244034620
:10401000934200D1704703F8011BF9E737B5002937
:1040200048D051F8043C0190002BA1F10404B8BF22
:10403000E41802F00FF8204A01981368154633B9C6
:104040006360146003B0BDE8304002F009B8A342D9
:104050000BD921686218934204BF1A685B686360D9
:1040600004BF521822602C60ECE71A465B680BB163
:10407000A342FAD911685518A5420BD124682144EE
:104080005418A3421160DDD11C685B685360214461
:104090001160D7E702D90C230360D3E725686119C3
:1040A0008B4204BF19685B68636004BF49192160D3
:1040B0005460C7E703B030BD10070020F8B5CD1C31
:1040C00025F0030508350C2D38BF0C25002D0646BC
:1040D00001DBA94203D90C2333600020F8BD01F0B5
:1040E000B9FF21490A6814469CB9204F3B6823B99F
:1040F0002146304600F000FE38602946304600F088
:10410000FBFD431C23D10C233360304601F0A8FF94
:10411000E3E723685B1B17D40B2B03D923601C44F4
:10412000256004E06368A2420CBF0B605360304618
:1041300001F096FF04F10B00231D20F00700C21AC6
:10414000CCD01B1AA350C9E722466468CCE7C41C34
:1041500024F00304A042E3D0211A304600F0CCFD45
:104160000130DDD1CFE700BF100700201407002089
:104170009368013B002B10B4936008DA9469A34262
:1041800001DB0A2903D15DF8044B00F0E5BD13689B
:10419000581C1060197008465DF8044B7047F8B55C
:1041A00006460F461446D518AC4201D1002007E060
:1041B00014F8011B3A463046FFF7DAFF431CF3D1EF
:1041C000F8BD00002DE9F04F0D469DB0144698460D
:1041D000064618B183690BB901F018FE894B9D4260
:1041E0001BD175686B6ED90705D4AB899A0502D4CB
:1041F000A86D01F0AEFEAB891B0701D52B69EBB9A9
:104200002946304600F0FAFDC0B16B6EDC070ED5D2
:104210004FF0FF301DB0BDE8F08F7B4B9D4201D1C8
:10422000B568DFE7794B9D4208BFF568DAE7AB89EF
:104230009805EDD4A86D01F08DFEE9E70023099300
:1042400020238DF82930CDF80C803023DFF8C08191
:104250008DF82A304FF0010923469A4613F8012BB6
:104260000AB1252AF9D1BAEB040B0BD05B462246E2
:1042700029463046FFF793FF013000F0AA80099AE3
:104280005A4409929AF80030002B00F0A2800023D3
:104290004FF0FF32CDE905230AF1010A0493079399
:1042A0008DF853301A935446052214F8011B5848D0
:1042B000FBF796FF049AD8B9D10644BF20238DF8A6
:1042C0005330130744BF2B238DF853309AF8003036
:1042D0002A2B15D0079A544600204FF00A0C21468D
:1042E00011F8013B303B092B4ED9B0B1079214E0D5
:1042F000A0EB080309FA03F313430493A246D2E7A1
:10430000039B191D1B680391002BBBBF5B4242F04E
:10431000020207930793B8BF049223782E2B0CD187
:1043200063782A2B35D1039B1A1D1B680392002B3F
:10433000B8BF4FF0FF3302340593DFF8E4A02178D3
:1043400003225046FBF74CFF40B14023A0EB0A008C
:1043500003FA00F0049B03430134049314F8011B97
:104360002C488DF828100622FBF73AFF00283FD092
:10437000294B1BBB039B073323F00703083303932D
:10438000099B3B44099367E70CFB02320C46012072
:10439000A5E700230134059319464FF00A0C204687
:1043A00010F8012B303A092A03D9002BC5D005910A
:1043B000C3E70CFB012104460123F0E703AB0093A4
:1043C0002A46164B04A9304600F0CCF80746781C64
:1043D000D6D16B6ED90705D4AB899A0502D4A86DE6
:1043E00001F0B8FDAB895B063FF512AF099811E704
:1043F00003AB00932A46094B04A9304600F056FB54
:10440000E4E700BF587600087876000838760008A0
:10441000407500084A750008654500089F4100087E
:10442000467500082DE9FF4755EC104B002D0E4650
:1044300019462B46BBBF05F100431D4600232D2323
:104440000B700D9BDDF830A0914623F02008BCBF17
:1044500022461446B8F1460F05D0B8F1450F00D1F9
:104460000136022100E0032103AB019302AB00936C
:1044700045EC104B5346324600F0C2FDB8F1470FF1
:10448000074602D119F0010F22D0B8F1460F07EB11
:10449000060910D13B78302B0AD100220023204698
:1044A0002946FCF711FB18B9C6F10106CAF80060ED
:1044B000DAF8003099440022002320462946FCF710
:1044C00003FB08B1CDF80C903022039B4B4507D37A
:1044D000039B0E9ADB1B3846136004B0BDE8F087DF
:1044E000591C03911A70F0E7F7B503460029B8BFCD
:1044F000494203F8022BB4BF2D222B220929427016
:104500002ADD0DF10704A4460A27A6460A4691FBB8
:10451000F7F607FB16153035632A04F1FF340EF861
:10452000015C3146F1DC3031AEF1020504F8011CCA
:10453000441C294661450AD30DF10902A2EB0E0283
:10454000654588BF00221344181A03B0F0BD11F866
:10455000012B04F8012FEDE7302330318370C17057
:10456000031DF1E72DE9F04F2DED028B8DB00C46C8
:10457000DDF8608016461F46054601F0E5FCD0F8E0
:1045800000A05046FBF724FE00230A9323680593FE
:10459000D8F8003094F818B0073323F0070303F17C
:1045A0000802C8F80020D3E90023C4E91223D4E9A3
:1045B000128929F000430793CDF8188008EE100AFD
:1045C0009F4BDDE906014FF0FF32FCF7AFFA88BBE5
:1045D000DDE906019A4B4FF0FF32FCF789FA48BB40
:1045E0000022002340464946FCF778FA10B12D23FB
:1045F00084F84330934B9448BBF1470F94BF9846DF
:10460000804603232361059B23F0040222604FF0C0
:104610000009009733460BAA2146284600F0D8F936
:10462000013040F090804FF0FF300DB0BDEC028BB8
:10463000BDE8F08F42464B4640464946FCF776FAC5
:1046400040B14B46002BBCBF2D2384F843307F483C
:104650007F4BD1E763680BF0DF0206925A1C3FD113
:1046600006236360059B616843F480620023039323
:104670000AABCDE901B309AB49EC108B0093226082
:104680000DF123032846FFF7CDFE069B0999472B22
:10469000804608D1C81C02DB6368994241DDABF15A
:1046A000020B5FFA8BFBBBF1650F20D801395A462C
:1046B00004F150000991FFF717FF0A9A1318012A15
:1046C0008146236102DC2268D20701D501332361D0
:1046D0009DF82330002B9CD02D2384F8433098E79D
:1046E000069A472ABED1002BBCD10123B9E7BBF102
:1046F000660F18D1002963680BDD216113B92268A8
:10470000D00702D501330B442361A1654FF00009A6
:10471000DEE713B92268D20701D50233F4E701239B
:10472000F2E74FF0670B0A9B994205DB2368216192
:10473000D807EAD54B1CE7E70029D4BFC1F1020234
:1047400001221344E0E723685A0507D4236942464F
:1047500031462846B84701302CD164E7BBF1650FDC
:1047600040F2E080D4E9120100220023FCF7ACF90A
:10477000002834D0374A012331462846B847013053
:104780003FF451AFDDE909239A4202DB2368D807E1
:1047900010D518EE103A524631462846B847013037
:1047A0003FF441AF4FF0000804F11A090A9B013BA6
:1047B000434509DC23689B0700F10581E0680B9BFA
:1047C0009842B8BF184630E701234A46314628468A
:1047D000B84701303FF427AF08F10108E6E7099B2D
:1047E000002B39DC1B4A012331462846B8470130EB
:1047F0003FF419AFDDE90923134302D12368D90738
:10480000D8D518EE103A524631462846B8470130FE
:104810003FF409AF4FF0000904F11A0A099B5B420B
:104820004B4501DC0A9B92E701235246314628465C
:10483000B84701303FF4F7AE09F10109EEE700BFD8
:10484000FFFFEF7F51750008557500085D75000882
:1048500059750008617500080A9AA36D9A42A8BFAD
:104860001A46002A914637DC4FF0000B29EAE97915
:1048700004F11A02A36D0593A3EB09035B4533DC36
:10488000DDE909239A423BDB2368DA0738D40A9A28
:10489000059B0999D31AA2EB01099945A8BF99462E
:1048A000B9F1000F35DC4FF0000829EAE97904F18D
:1048B0001A0ADDE909239B1AA3EB090343457FF795
:1048C00079AF0123524631462846B84701303FF4BC
:1048D000AAAE08F10108ECE71346314642462846E5
:1048E000B8470130C0D19EE60123314628460592E3
:1048F000B84701303FF497AE059A0BF1010BB9E7C9
:1049000018EE103A524631462846B8470130BED11B
:1049100089E6059A4B46424431462846B84701305D
:10492000C1D180E60A9A012A01DCDB0738D50123D0
:10493000424631462846B84701303FF474AE18EE7F
:10494000103A524631462846B84701303FF46BAE24
:10495000D4E9120100220023FCF7B6F8D8B90A9B6B
:1049600008F10102013B31462846B84701300ED11B
:1049700059E60123524631462846B84701303FF4F4
:1049800052AE08F101080A9B013B4345F1DC4B465E
:1049900004F15002DCE64FF0000804F11A0AF2E7D5
:1049A00001234246DFE701234A4631462846B847FD
:1049B00001303FF438AE08F10108E3680B995B1A47
:1049C0004345F0DCFAE64FF0000804F11909F4E77A
:1049D0002DE9F047164699468A680B69DDF8208074
:1049E0009342B8BF1346336091F8432007460C4604
:1049F0000AB1013333602368990642BF336802333A
:104A00003360256815F0060506D104F1190AE3683C
:104A100032689B1AAB4226DC94F84320131E2268AE
:104A200018BF012392062BD404F1430249463846AD
:104A3000C04701301ED02368E568326803F00603E2
:104A4000042B08BFAD1AA36822690CBF25EAE575DF
:104A500000259342C4BF9B1AED1800261A34B542B4
:104A60001AD1002008E00123524649463846C04783
:104A7000013003D14FF0FF30BDE8F0870135C6E7C4
:104A8000E1185A1C302081F84300224494F8451064
:104A900082F843100233C7E70123224649463846CD
:104AA000C0470130E6D00136D9E700002DE9FF47C5
:104AB0000C469146277E0C99782F80469A4604F141
:104AC000430207D8622F0AD8002F00F0D880582F51
:104AD00000F0A38004F1420684F842703AE0A7F1A6
:104AE0006303152BF6D801A050F823F0454B0008BE
:104AF000594B0008D54A0008D54A0008D54A000895
:104B0000D54A0008594B0008D54A0008D54A000884
:104B1000D54A0008D54A0008654C0008894B0008B2
:104B2000474C0008D54A0008D54A0008874C0008C1
:104B3000D54A0008894B0008D54A0008D54A000824
:104B40004F4C00080B681A1D1B680A6004F14206EE
:104B500084F842300123A3E0256808682E0600F19E
:104B600004030AD505680B60002D03DA2D236D427E
:104B700084F843305E480A2319E015F0400F0568B9
:104B80000B6018BF2DB2EFE70B682568181D086091
:104B9000280601D51D6802E06906FBD51D8854482A
:104BA0006F2F0CBF08230A23002184F84310666886
:104BB000A660002EA2BF216821F0040121600DB97A
:104BC000002E4DD01646B5FBF3F103FB1157C75D20
:104BD00006F8017D2F46BB420D46F4D9082B0BD1B8
:104BE0002368DF0708D5236961689942DEBF302357
:104BF00006F8013C06F1FF36921B2261CDF800A0B9
:104C00004B4603AA21464046FFF7E2FE01304CD155
:104C10004FF0FF3004B0BDE8F087354884F84570A8
:104C200023680E681F0656F8045B0E6014D5D9077A
:104C300044BF43F0200323601DB9236823F0200301
:104C400023601023B0E7236843F020032360782318
:104C5000284884F84530E3E75E0648BFADB2E6E792
:104C60001646BBE70B68266860691D1D0D6035069A
:104C70001B6801D5186002E07106FBD5188000237F
:104C800023611646BAE70B681A1D0A601E6862683F
:104C900000213046FBF7A4FA08B1801B606063680E
:104CA0002361002384F84330A8E72369324649464C
:104CB0004046D0470130ABD023689B0713D4E0684F
:104CC000039B9842B8BF1846A4E7012332464946E1
:104CD0004046D04701309BD00135E36803995B1A09
:104CE000AB42F2DCEBE7002504F11906F5E700BF63
:104CF000637500087475000838B5064D0023044636
:104D000008462B6002F010F8431C02D12B6803B157
:104D1000236038BD380D00200EB400B59CB01DAB2B
:104D2000029006906FF000410948079104910949EB
:104D300053F8042B05910068019302A901F0A4FD2A
:104D4000029B00221A701CB05DF804EB03B07047A0
:104D5000A00400200802FFFFF8B50E4614460546E1
:104D600018B183690BB901F051F8214B9C422BD14A
:104D70006C68A369A360A3891A072FD523696BB355
:104D800023692068C01A6369F6B28342374604DC9F
:104D90002146284600F0A6FF30BBA368013BA36074
:104DA00023685A1C22601E7063690130834204D05C
:104DB000A389DB0706D50A2E04D12146284600F038
:104DC00091FF88B93846F8BD0A4B9C4201D1AC68C6
:104DD000CFE7094B9C4208BFEC68CAE7214628464A
:104DE00000F00CF80028CBD04FF0FF37EAE700BF07
:104DF000587600087876000838760008324B70B58F
:104E00001D6806460C4625B1AB6913B9284600F06B
:104E1000FDFF2E4B9C420FD16C68A389B4F90C2086
:104E200019072CD4DD0611D40923336042F0400366
:104E3000A3814FF0FF303EE0254B9C4201D1AC688E
:104E4000EBE7244B9C4208BFEC68E6E7580712D515
:104E5000616B41B104F14403994202D03046FFF73F
:104E6000DDF800236363A38923F02403A3810023D7
:104E7000636023692360A38943F00803A381236946
:104E80004BB9A38903F42073B3F5007F03D0214607
:104E9000304601F085F8A089B4F90C2010F0010328
:104EA0000AD00023A36063695B42A361236943B90D
:104EB00010F08000BAD170BD810758BF6369A3604C
:104EC000F4E70020F7E700BFA004002058760008B0
:104ED000787600083876000808B5062001F0FCFD59
:104EE000012001F037FF2DE9F74F03690C69A34258
:104EF0000746C0F28180013C01F1140800F114055D
:104F000005EB8403019358F8243055F8242001332D
:104F10009A424FEA840B08EB8409B2FBF3F631D3D3
:104F20004FF0000E4046AC46F24650F8042B93B2C8
:104F300006FB03E34FEA134E9BB2AAEB0303120CEA
:104F4000DCF800A006FB02E213FA8AF34FEA124EE5
:104F50001FFA82FADCF80020CAEB124202EB23426D
:104F60009BB243EA024381454CF8043B4FEA224A94
:104F7000DBD255F80B302BB9019B043B9D421A46FE
:104F80002ED33C61384601F0EFFA002824DB0136CD
:104F900028464FF0000C58F8042BD0F800E093B2EC
:104FA000ACEB0303120C13FA8EF3C2EB1E4202EBBE
:104FB00023429BB243EA0243C14540F8043B4FEA17
:104FC000224CE8D255F8242005EB840322B9043B97
:104FD0009D421A460AD33C61304603B0BDE8F08FCB
:104FE0001268043B002ACCD1013CC7E71268043B9D
:104FF000002AF0D1013CEBE70020EEE700000000C2
:105000002DE9F04F2DED028B57EC106B95B0456AF2
:10501000DDF880800591CDE90267044609920F937F
:1050200075B91020FEF7D4FF0246606220B9B24B7A
:10503000EA21B248FEF778FFC0E901550560C56076
:10504000636A196851B15A684A60012393408B60C2
:10505000204601F04BF8636A00221A603B1EB9BF7C
:1050600023F0004303930023C8F80030DDF80C90D0
:10507000A34BBCBF0122C8F8002033EA09031BD1AF
:105080000F9A42F20F731360C9F31303334300F016
:105090007A85219B63B99B4B24E09B4B009308339B
:1050A000219A1360009815B0BDEC028BBDE8F08F1B
:1050B000944B00930333F3E79DED027B002251EC08
:1050C000170B00238DED0A7BFBF7FEFC804658B1E1
:1050D0000F9A01231360219B002B00F051858B4810
:1050E0001860431E0093DDE79DED0A0B12AA13A979
:1050F000204601F0DDFAC9F30A558346002D7CD025
:105100000B9BCDF84080C3F31303DDE90A6743F03E
:105110007F5747F44017A5F2FF357D4B00223046FC
:105120003946FBF7B1F86EA3D3E90023FBF764FA25
:105130006DA3D3E90023FBF7A9F8064628460F46DE
:10514000FBF7F0F96AA3D3E90023FBF755FA02460F
:105150000B4630463946FBF799F806460F46FBF7F3
:10516000FBFC00228246002330463946FBF7B6FCA2
:1051700048B15046FBF7D6F932463B46FBF7A4FC54
:1051800008B90AF1FF3ABAF1160F54D8614B03EB94
:10519000CA03D3E90023DDE90A01FBF79FFC0028DD
:1051A0004BD00AF1FF3A00230E93129B5D1B6B1E3E
:1051B000049343BF0023C5F1010804934FF0000896
:1051C000BAF1000F3BDB049BCDF834A053440493A9
:1051D00000230693059B092B69D8052BC4BF043B0C
:1051E0000593059BA3F10203CCBF00250125032BEA
:1051F00069D8DFE803F02C4E4C5ADDE912531D4408
:1052000005F23243202BC1BFC3F1400305F2124027
:1052100009FA03F326FA00F0DABFC3F1200306FA15
:1052200003F01843FBF76EF901230646A1F1F87766
:10523000013D109371E70123B6E70E90B5E7CAF17F
:10524000000306930023A8EB0A080D93C2E700238E
:105250000893099B002B39DC4FF00109CDF804902D
:105260004B46CDF82490606A00224260042202F18D
:1052700014069E4241682FD9204600F0F7FE0090A8
:1052800000284BD1244B02464FF4D571D1E60123BF
:10529000DEE700230893099B0AEB030909F10103E8
:1052A000012B0193B8BF0123DDE70123F2E70125BC
:1052B0000023059308954FF0FF390022CDF80490A4
:1052C00012230992CFE701230893F4E7DDF8249035
:1052D000CDF804904B46C6E7013141605200C6E765
:1052E00061436F63A787D23FB3C8608B288AC63FEC
:1052F000FB799F501344D33F92750008A9750008AD
:105300000000F07F8E750008857500086275000842
:105310000000F83F4077000825760008636A009A8D
:105320001A60019B0E2B00F2AD80002D00F0AA80C8
:10533000BAF1000F36DDC34A0AF00F0302EBC303D4
:1053400093ED007B1AF4807F4FEA2A17B0EE478A6C
:10535000F0EE678A16D0BC4BDDE90A01D3E90823D9
:10536000FBF774FACDE9020107F00F070325B64EEB
:1053700057B9DDE9020153EC182BFBF767FACDE9C9
:10538000020129E00225F2E7F90708D551EC180BD4
:10539000D6E90023FBF730F941EC180B01357F10FB
:1053A0000836E5E700F0A680CAF10006A54BA64F37
:1053B00006F00F0203EBC203D3E90023DDE90A0183
:1053C000FBF71AF9CDE90201361100230225002E60
:1053D00040F08580002BD2D10E9B002B00F08C80FA
:1053E000DDE90267994B002230463946FBF776FB30
:1053F000002800F08180019B002B7DD0B9F1000FC7
:105400003CDD0AF1FF3307930022914B30463946C9
:10541000FBF7F2F8CDE902010135CDF83090DDE976
:1054200002672846FBF77EF832463B46FBF7E4F876
:10543000884B0022FAF72AFFA1F15073CDE902014F
:1054400003930C9B002B5CD1834B002230463946E2
:10545000FAF71AFFDDE9022306460F46FBF75CFB6D
:10546000002840F09682DDE90221304601F1004338
:105470003946FBF733FB002840F08882DDE90A2338
:10548000CDE90223139B002BC0F25881BAF10E0F15
:1054900000F354816B4B03EBCA03D3E90089099BEA
:1054A000002B80F2E380019B002B00F3DF8040F0B3
:1054B0006D82694B002240464946FBF79DF8DDE9C5
:1054C0000223FBF71FFB019E3746002840F0438272
:1054D000009D312305F8013B0AF1010A3FE2F20782
:1054E00005D5D7E90023FBF787F8013501237610AE
:1054F00008376CE702256FE7019BCDF81CA00C93E1
:105500008DE700990C980C9A4E4B9DED027B01445F
:1055100002910899B0EE478AF0EE678A03EBC20366
:1055200053E90223002945D04C490020FBF78EF9AE
:1055300053EC182BFAF7A8FE009D41EC180B3946E6
:105540003046FBF709FB0C90FAF7ECFF02460B46DE
:1055500030463946FAF798FE0C9B303305F8013B8C
:1055600053EC182B06460F46FBF7B8FA002865D116
:1055700032463B4635490020FAF786FE53EC182B9D
:10558000FBF7ACFA002840F0B980029B9D423FF443
:1055900075AF2F4B51EC180B0022FBF72DF82C4B5D
:1055A00041EC180B002230463946FBF725F8064639
:1055B0000F46C4E751EC170BFBF71EF8029B009D4A
:1055C0000C9341EC180B39463046FBF7C5FA1190A5
:1055D000FAF7A8FF02460B4630463946FAF754FE62
:1055E000119B303305F8013B029B9D4206460F4656
:1055F0004FF0000234D1194B51EC180BFAF746FE6C
:1056000002460B4630463946FBF786FA002875D12C
:1056100053EC182B11490020FAF736FE02460B46D0
:1056200030463946FBF75AFA00283FF427AF0C9D65
:105630006B1E0C9315F8013C302BF8D0DDF81CA044
:105640004AE000BF40770008187700080000F03FEC
:105650000000244000001C40000014400000E03F17
:10566000AF4BFAF7C9FF06460F46ACE7DDE9026724
:10567000009D42464B4630463946FBF7E7F8FBF7BC
:105680006BFA0290FAF74EFF42464B46FAF7B4FF28
:1056900002460B4630463946FAF7F6FD029E019F58
:1056A000303605F8016B009EAE1BB74202460B4632
:1056B00037D1FAF7EBFD42464B4606460F46FBF75D
:1056C0002BFAC8B942464B4630463946FBF7FCF93F
:1056D00010B1029BD9070FD42046594600F006FDB1
:1056E00000232B700F9B0AF101001860219B002BF7
:1056F0003FF4D8AC1D60D5E4CDF81CA02B461D4668
:1057000013F8012D392A08D1009A9A42F7D1079A45
:1057100000990132079230220A701A7801321A7009
:105720008CE77F4B0022FAF767FF00220023064632
:105730000F46FBF7C9F900289BD0CDE7089A002A4D
:1057400000F0C480059A012A00F3A880109A002A6C
:1057500000F0A08003F23343069E4546049A0121DF
:105760001A4420469844049200F07CFD0746002D20
:105770000BDD049B002B08DDAB42049AA8BF2B462F
:10578000A8EB0308ED1AD31A0493069BFBB1089B00
:10579000002B00F09F80002E11DD39463246204656
:1057A00000F01CFE5A4601460746204600F070FDF8
:1057B00059460790204600F099FC079B9B46069BA4
:1057C0009A1B04D05946204600F008FE834601216A
:1057D000204600F047FD0D9B002B06467CDD1A4657
:1057E0000146204600F0FAFD059B012B064676DDBA
:1057F00000230693336906EB8303186900F0E2FC8B
:10580000C0F12000049B184410F01F0000F08680B7
:10581000C0F12003042B7FDDC0F11C00049B034476
:10582000804405440493B8F1000F05DD5946424613
:10583000204600F02DFE8346049B002B05DD3146FB
:105840001A46204600F024FE06460E9B002B69D027
:105850003146584600F088FE002863DA0023594696
:105860000A22204600F064FC089B0AF1FF3A8346B6
:10587000002B00F08F81394600230A22204600F0D9
:1058800057FCB9F1000F074600F38E80059B022BF1
:1058900050DC89E0129BC3F136035DE7019B5E1E7D
:1058A000069BB342BFBF069B0696F21A0D9BB6BF7E
:1058B0009B189E1B0D93019BB8BF0026002BB5BF04
:1058C000A8EB0305019B0023454647E7069E089F7A
:1058D00045464CE7069A75E7059B012B18DC029BB1
:1058E000B3B9039BC3F31303A3B9039B23F0004392
:1058F0001B0D1B052BB1049B0133049308F1010818
:10590000012306930D9B002B7FF474AF012079E7F0
:105910000023F6E7029BF4E785D018461C307DE7AC
:1059200000002440019B002B38DC059B022B35DD59
:10593000DDF80490B9F1000F0DD131464B46052238
:10594000204600F0F5FB01460646584600F00CFEE6
:1059500000283FF7BDAD099B009D6FEA030A4FF099
:1059600000083146204600F0C1FB002F3FF4B4AEE2
:10597000B8F1000F05D0B84503D04146204600F0ED
:10598000B5FB3946204600F0B1FBA5E600263746B8
:10599000E1E70C9EDDF81CA0374699E5089BDDF891
:1059A0000490002B00F0FD80002D05DD39462A46CD
:1059B000204600F06DFD0746069B002B5CD0796801
:1059C000204600F053FB054628B9804B024640F2C2
:1059D000EA21FFF72EBB3A690232920007F10C016F
:1059E0000C30FEF705FB01222946204600F050FD51
:1059F000009B01330193009B4B440793029B03F0F0
:105A00000103B84606930746019B3146013B5846C1
:105A10000293FFF768FA0346303304904146584634
:105A2000089300F0A1FD3A4681463146204600F039
:105A3000B7FDC268089B054602BB0146584600F008
:105A400093FD089B024629462046CDE9083200F026
:105A50004DFB059B099A019D43EA0201069B0B43FE
:105A6000089B0DD1392B29D0B9F1000F01DD049B22
:105A70003133029A137074E73846B9E70122E2E73E
:105A8000B9F1000F06DB059941EA0909069959EABF
:105A9000010120D1002AECDD594601222046019364
:105AA00000F0F6FC3146834600F05EFD0028019BC5
:105AB00002DCDED1DA07DCD5392BD8D1029A3923C2
:105AC00013702B461D46013B15F8012C392A50D086
:105AD00001321A7045E7002A03DD392BEED001337D
